{
  "contractName": "Ballot",
  "abi": [
    {
      "inputs": [
        {
          "internalType": "string[]",
          "name": "candidateNames",
          "type": "string[]"
        },
        {
          "internalType": "string[]",
          "name": "candidateParty",
          "type": "string[]"
        },
        {
          "internalType": "string",
          "name": "district",
          "type": "string"
        },
        {
          "internalType": "address",
          "name": "creator",
          "type": "address"
        },
        {
          "internalType": "uint256",
          "name": "amountofHours",
          "type": "uint256"
        }
      ],
      "stateMutability": "nonpayable",
      "type": "constructor"
    },
    {
      "inputs": [
        {
          "internalType": "uint256",
          "name": "",
          "type": "uint256"
        }
      ],
      "name": "candidates",
      "outputs": [
        {
          "internalType": "string",
          "name": "name",
          "type": "string"
        },
        {
          "internalType": "string",
          "name": "party",
          "type": "string"
        },
        {
          "internalType": "uint256",
          "name": "voteCount",
          "type": "uint256"
        },
        {
          "internalType": "uint256",
          "name": "creationDate",
          "type": "uint256"
        },
        {
          "internalType": "uint256",
          "name": "expirationDate",
          "type": "uint256"
        }
      ],
      "stateMutability": "view",
      "type": "function"
    },
    {
      "inputs": [],
      "name": "manager",
      "outputs": [
        {
          "internalType": "address",
          "name": "",
          "type": "address"
        }
      ],
      "stateMutability": "view",
      "type": "function"
    },
    {
      "inputs": [
        {
          "internalType": "address",
          "name": "",
          "type": "address"
        }
      ],
      "name": "voters",
      "outputs": [
        {
          "internalType": "bool",
          "name": "",
          "type": "bool"
        }
      ],
      "stateMutability": "view",
      "type": "function"
    },
    {
      "inputs": [],
      "name": "votingDistrict",
      "outputs": [
        {
          "internalType": "string",
          "name": "",
          "type": "string"
        }
      ],
      "stateMutability": "view",
      "type": "function"
    },
    {
      "inputs": [
        {
          "internalType": "uint256",
          "name": "index",
          "type": "uint256"
        }
      ],
      "name": "vote",
      "outputs": [],
      "stateMutability": "nonpayable",
      "type": "function"
    },
    {
      "inputs": [
        {
          "internalType": "uint256",
          "name": "index",
          "type": "uint256"
        }
      ],
      "name": "getCandidateName",
      "outputs": [
        {
          "internalType": "string",
          "name": "",
          "type": "string"
        }
      ],
      "stateMutability": "view",
      "type": "function"
    },
    {
      "inputs": [
        {
          "internalType": "uint256",
          "name": "index",
          "type": "uint256"
        }
      ],
      "name": "getCandidateParty",
      "outputs": [
        {
          "internalType": "string",
          "name": "",
          "type": "string"
        }
      ],
      "stateMutability": "view",
      "type": "function"
    },
    {
      "inputs": [],
      "name": "getCandidateNames",
      "outputs": [
        {
          "internalType": "string[]",
          "name": "",
          "type": "string[]"
        }
      ],
      "stateMutability": "view",
      "type": "function"
    },
    {
      "inputs": [],
      "name": "getCandidatePartys",
      "outputs": [
        {
          "internalType": "string[]",
          "name": "",
          "type": "string[]"
        }
      ],
      "stateMutability": "view",
      "type": "function"
    },
    {
      "inputs": [
        {
          "internalType": "uint256",
          "name": "index",
          "type": "uint256"
        }
      ],
      "name": "getVoteCount",
      "outputs": [
        {
          "internalType": "uint256",
          "name": "",
          "type": "uint256"
        }
      ],
      "stateMutability": "view",
      "type": "function"
    }
  ],
  "bytecode": "0x60806040523480156200001157600080fd5b50604051620015ce380380620015ce83398181016040526200003791908101906200042f565b81600160006101000a81548173ffffffffffffffffffffffffffffffffffffffff021916908373ffffffffffffffffffffffffffffffffffffffff16021790555082600290805190602001906200009092919062000196565b5060008090505b85518110156200018a5760006040518060a00160405280888481518110620000bb57fe5b60200260200101518152602001878481518110620000d557fe5b6020026020010151815260200160008152602001428152602001844201815250908060018154018082558091505060019003906000526020600020906005020160009091909190915060008201518160000190805190602001906200013c9291906200021d565b5060208201518160010190805190602001906200015b9291906200021d565b506040820151816002015560608201518160030155608082015181600401555050808060010191505062000097565b50505050505062000655565b828054600181600116156101000203166002900490600052602060002090601f016020900481019282601f10620001d957805160ff19168380011785556200020a565b828001600101855582156200020a579182015b8281111562000209578251825591602001919060010190620001ec565b5b509050620002199190620002a4565b5090565b828054600181600116156101000203166002900490600052602060002090601f016020900481019282601f106200026057805160ff191683800117855562000291565b8280016001018555821562000291579182015b828111156200029057825182559160200191906001019062000273565b5b509050620002a09190620002a4565b5090565b620002c991905b80821115620002c5576000816000905550600101620002ab565b5090565b90565b600081519050620002dd8162000621565b92915050565b600082601f830112620002f557600080fd5b81516200030c62000306826200052a565b620004fc565b9150818183526020840193506020810190508360005b838110156200035657815186016200033b888262000360565b84526020840193506020830192505060018101905062000322565b5050505092915050565b600082601f8301126200037257600080fd5b815162000389620003838262000553565b620004fc565b91508082526020830160208301858383011115620003a657600080fd5b620003b3838284620005eb565b50505092915050565b600082601f830112620003ce57600080fd5b8151620003e5620003df8262000580565b620004fc565b915080825260208301602083018583830111156200040257600080fd5b6200040f838284620005eb565b50505092915050565b60008151905062000429816200063b565b92915050565b600080600080600060a086880312156200044857600080fd5b600086015167ffffffffffffffff8111156200046357600080fd5b6200047188828901620002e3565b955050602086015167ffffffffffffffff8111156200048f57600080fd5b6200049d88828901620002e3565b945050604086015167ffffffffffffffff811115620004bb57600080fd5b620004c988828901620003bc565b9350506060620004dc88828901620002cc565b9250506080620004ef8882890162000418565b9150509295509295909350565b6000604051905081810181811067ffffffffffffffff821117156200052057600080fd5b8060405250919050565b600067ffffffffffffffff8211156200054257600080fd5b602082029050602081019050919050565b600067ffffffffffffffff8211156200056b57600080fd5b601f19601f8301169050602081019050919050565b600067ffffffffffffffff8211156200059857600080fd5b601f19601f8301169050602081019050919050565b6000620005ba82620005c1565b9050919050565b600073ffffffffffffffffffffffffffffffffffffffff82169050919050565b6000819050919050565b60005b838110156200060b578082015181840152602081019050620005ee565b838111156200061b576000848401525b50505050565b6200062c81620005ad565b81146200063857600080fd5b50565b6200064681620005e1565b81146200065257600080fd5b50565b610f6980620006656000396000f3fe608060405234801561001057600080fd5b506004361061009e5760003560e01c8063716c424e11610066578063716c424e1461015f57806372b9d6161461017d578063a3ec138d1461019b578063b2c2f2e8146101cb578063e13804a7146101fb5761009e565b80630121b93f146100a357806330e4f84d146100bf5780633477ee2e146100dd578063456645a714610111578063481c6a7514610141575b600080fd5b6100bd60048036036100b89190810190610b66565b61022b565b005b6100c761030a565b6040516100d49190610d0b565b60405180910390f35b6100f760048036036100f29190810190610b66565b61045e565b604051610108959493929190610d8c565b60405180910390f35b61012b60048036036101269190810190610b66565b6105d1565b6040516101389190610d6a565b60405180910390f35b610149610715565b6040516101569190610cf0565b60405180910390f35b61016761073b565b6040516101749190610d48565b60405180910390f35b6101856107d9565b6040516101929190610d0b565b60405180910390f35b6101b560048036036101b09190810190610b3d565b61092d565b6040516101c29190610d2d565b60405180910390f35b6101e560048036036101e09190810190610b66565b61094d565b6040516101f29190610ded565b60405180910390f35b61021560048036036102109190810190610b66565b6109cf565b6040516102229190610d6a565b60405180910390f35b600360003373ffffffffffffffffffffffffffffffffffffffff1673ffffffffffffffffffffffffffffffffffffffff16815260200190815260200160002060009054906101000a900460ff161561028257600080fd5b60016000828154811061029157fe5b9060005260206000209060050201600201600082825401925050819055506001600360003373ffffffffffffffffffffffffffffffffffffffff1673ffffffffffffffffffffffffffffffffffffffff16815260200190815260200160002060006101000a81548160ff02191690831515021790555050565b6060600160009054906101000a900473ffffffffffffffffffffffffffffffffffffffff1673ffffffffffffffffffffffffffffffffffffffff163373ffffffffffffffffffffffffffffffffffffffff161461036657600080fd5b606060008090505b600080549050811015610456576000818154811061038857fe5b90600052602060002090600502016001018054600181600116156101000203166002900480601f01602080910402602001604051908101604052809291908181526020018280546001816001161561010002031660029004801561042d5780601f106104025761010080835404028352916020019161042d565b820191906000526020600020905b81548152906001019060200180831161041057829003601f168201915b505050505082828151811061043e57fe5b6020026020010181905250808060010191505061036e565b508091505090565b6000818154811061046b57fe5b9060005260206000209060050201600091509050806000018054600181600116156101000203166002900480601f0160208091040260200160405190810160405280929190818152602001828054600181600116156101000203166002900480156105175780601f106104ec57610100808354040283529160200191610517565b820191906000526020600020905b8154815290600101906020018083116104fa57829003601f168201915b505050505090806001018054600181600116156101000203166002900480601f0160208091040260200160405190810160405280929190818152602001828054600181600116156101000203166002900480156105b55780601f1061058a576101008083540402835291602001916105b5565b820191906000526020600020905b81548152906001019060200180831161059857829003601f168201915b5050505050908060020154908060030154908060040154905085565b6060600160009054906101000a900473ffffffffffffffffffffffffffffffffffffffff1673ffffffffffffffffffffffffffffffffffffffff163373ffffffffffffffffffffffffffffffffffffffff161461062d57600080fd5b6000828154811061063a57fe5b906000526020600020906005020160040154421161065757600080fd5b6000828154811061066457fe5b90600052602060002090600502016001018054600181600116156101000203166002900480601f0160208091040260200160405190810160405280929190818152602001828054600181600116156101000203166002900480156107095780601f106106de57610100808354040283529160200191610709565b820191906000526020600020905b8154815290600101906020018083116106ec57829003601f168201915b50505050509050919050565b600160009054906101000a900473ffffffffffffffffffffffffffffffffffffffff1681565b60028054600181600116156101000203166002900480601f0160208091040260200160405190810160405280929190818152602001828054600181600116156101000203166002900480156107d15780601f106107a6576101008083540402835291602001916107d1565b820191906000526020600020905b8154815290600101906020018083116107b457829003601f168201915b505050505081565b6060600160009054906101000a900473ffffffffffffffffffffffffffffffffffffffff1673ffffffffffffffffffffffffffffffffffffffff163373ffffffffffffffffffffffffffffffffffffffff161461083557600080fd5b606060008090505b600080549050811015610925576000818154811061085757fe5b90600052602060002090600502016000018054600181600116156101000203166002900480601f0160208091040260200160405190810160405280929190818152602001828054600181600116156101000203166002900480156108fc5780601f106108d1576101008083540402835291602001916108fc565b820191906000526020600020905b8154815290600101906020018083116108df57829003601f168201915b505050505082828151811061090d57fe5b6020026020010181905250808060010191505061083d565b508091505090565b60036020528060005260406000206000915054906101000a900460ff1681565b6000600160009054906101000a900473ffffffffffffffffffffffffffffffffffffffff1673ffffffffffffffffffffffffffffffffffffffff163373ffffffffffffffffffffffffffffffffffffffff16146109a957600080fd5b600082815481106109b657fe5b9060005260206000209060050201600201549050919050565b6060600160009054906101000a900473ffffffffffffffffffffffffffffffffffffffff1673ffffffffffffffffffffffffffffffffffffffff163373ffffffffffffffffffffffffffffffffffffffff1614610a2b57600080fd5b60008281548110610a3857fe5b9060005260206000209060050201600401544211610a5557600080fd5b60008281548110610a6257fe5b90600052602060002090600502016000018054600181600116156101000203166002900480601f016020809104026020016040519081016040528092919081815260200182805460018160011615610100020316600290048015610b075780601f10610adc57610100808354040283529160200191610b07565b820191906000526020600020905b815481529060010190602001808311610aea57829003601f168201915b50505050509050919050565b600081359050610b2281610f05565b92915050565b600081359050610b3781610f1c565b92915050565b600060208284031215610b4f57600080fd5b6000610b5d84828501610b13565b91505092915050565b600060208284031215610b7857600080fd5b6000610b8684828501610b28565b91505092915050565b6000610b9b8383610c6f565b905092915050565b610bac81610e79565b82525050565b6000610bbd82610e18565b610bc78185610e46565b935083602082028501610bd985610e08565b8060005b85811015610c155784840389528151610bf68582610b8f565b9450610c0183610e39565b925060208a01995050600181019050610bdd565b50829750879550505050505092915050565b610c3081610e8b565b82525050565b6000610c4182610e2e565b610c4b8185610e68565b9350610c5b818560208601610ec1565b610c6481610ef4565b840191505092915050565b6000610c7a82610e23565b610c848185610e57565b9350610c94818560208601610ec1565b610c9d81610ef4565b840191505092915050565b6000610cb382610e23565b610cbd8185610e68565b9350610ccd818560208601610ec1565b610cd681610ef4565b840191505092915050565b610cea81610eb7565b82525050565b6000602082019050610d056000830184610ba3565b92915050565b60006020820190508181036000830152610d258184610bb2565b905092915050565b6000602082019050610d426000830184610c27565b92915050565b60006020820190508181036000830152610d628184610ca8565b905092915050565b60006020820190508181036000830152610d848184610c36565b905092915050565b600060a0820190508181036000830152610da68188610ca8565b90508181036020830152610dba8187610ca8565b9050610dc96040830186610ce1565b610dd66060830185610ce1565b610de36080830184610ce1565b9695505050505050565b6000602082019050610e026000830184610ce1565b92915050565b6000819050602082019050919050565b600081519050919050565b600081519050919050565b600081519050919050565b6000602082019050919050565b600082825260208201905092915050565b600082825260208201905092915050565b600082825260208201905092915050565b6000610e8482610e97565b9050919050565b60008115159050919050565b600073ffffffffffffffffffffffffffffffffffffffff82169050919050565b6000819050919050565b60005b83811015610edf578082015181840152602081019050610ec4565b83811115610eee576000848401525b50505050565b6000601f19601f8301169050919050565b610f0e81610e79565b8114610f1957600080fd5b50565b610f2581610eb7565b8114610f3057600080fd5b5056fea2646970667358221220c39fbd53e172d1c57cf34dcd8597e1bc33b2608dc7cb14d00b3b2411b04cd47d64736f6c63430006010033",
  "source": "pragma solidity 0.6.1;\r\npragma experimental ABIEncoderV2;\r\n\r\n\r\ncontract Electioncreation {\r\n    address[] public deployedBallots;\r\n    function startelec (string[][] memory candidates,string[][] memory party, string[] memory district , uint hour) public {\r\n        \r\n        for(uint i =0;i<district.length;i++)\r\n            {\r\n            Ballot newBallot=new Ballot (candidates[i],party[i], district[i], msg.sender, hour);\r\n            // a = newBallot.getAddress();\r\n            deployedBallots.push(address(newBallot));\r\n            }\r\n        }\r\n    function getsDeployedBallots() public view returns( address[] memory)\r\n    {return deployedBallots;}\r\n    \r\n}\r\n\r\ncontract Ballot \r\n{ \r\nstruct candidate\r\n{\r\n    string name;\r\n    string party;\r\n    uint voteCount;\r\n    uint creationDate;\r\n    uint expirationDate;\r\n}\r\n\r\ncandidate[] public candidates;\r\naddress public manager;\r\nstring public votingDistrict;\r\nmapping (address => bool) public voters;\r\nmodifier restricted() \r\n{\r\nrequire(msg.sender== manager);\r\n_;\r\n}\r\nconstructor (string[] memory candidateNames,string[] memory candidateParty, string memory district, address creator, uint amountofHours) public\r\n{\r\nmanager = creator;\r\nvotingDistrict = district;\r\nfor(uint i=0; i< candidateNames.length;i++)\r\n    {\r\n    candidates.push(candidate(\r\n    {   \r\n        name: candidateNames[i],\r\n        party: candidateParty[i],\r\n        voteCount: 0,\r\n        creationDate: now,\r\n        expirationDate: now + amountofHours\r\n    }));\r\n    }\r\n    //LogAddr(address(this));\r\n}\r\nfunction vote(uint index) public\r\n    {\r\n    require(! voters[msg.sender]);\r\n  //  if(now>candidates[index].expirationDate)\r\n  //  {\r\n  //  revert();\r\n   // }\r\n    candidates[index].voteCount +=1;\r\n    voters[msg.sender] = true;\r\n    }\r\n\r\nfunction getCandidateName(uint index) public restricted view returns (string memory)\r\n{\r\n    require(now>candidates[index].expirationDate);\r\n    return candidates[index].name;\r\n}\r\nfunction getCandidateParty(uint index) public restricted view returns (string memory)\r\n{\r\n    require(now>candidates[index].expirationDate);\r\n    return candidates[index].party;\r\n}\r\n\r\n\r\nfunction getCandidateNames() public restricted view returns (string[] memory){\r\n    string[] memory names;\r\n    for(uint i=0;i<candidates.length;i++)\r\n        names[i] = candidates[i].name;\r\n    return names;\r\n    \r\n}\r\nfunction getCandidatePartys() public restricted view returns (string[] memory){\r\n    string[] memory partys;\r\n    for(uint i=0;i<candidates.length;i++)\r\n        partys[i] = candidates[i].party;\r\n    return partys;\r\n}\r\n\r\nfunction getVoteCount(uint index)\r\npublic restricted view\r\nreturns(uint)\r\n{\r\n//require(now>candidates[index].expirationDate);\r\n    return candidates[index].voteCount;\r\n}\r\n\r\n}\r\n",
  "sourcePath": "D:\\Projects\\Blockchain_Based_EVM\\Voting portal\\contracts\\contract.sol",
  "compiler": {
    "name": "solc",
    "version": "0.6.1+commit.e6f7d5a4.Emscripten.clang"
  },
  "schemaVersion": "3.0.23",
  "updatedAt": "2020-04-03T11:18:16.745Z",
  "devdoc": {
    "methods": {}
  },
  "userdoc": {
    "methods": {}
  }
}